:020000040800F2
:1000000008050020D91E0008A11A0008A51A00083A
:10001000A71A0008A91A0008AB1A0008000000007F
:10002000000000000000000000000000AD1A000801
:10003000AF1A000800000000B11A0008B31A000847
:10004000FD1E0008011F0008051F0008091F000809
:100050000D1F0008111F0008151F0008191F0008B8
:100060001D1F0008211F0008251F0008291F000868
:100070002D1F0008311F0008351F0008391F000818
:100080003D1F0008411F0008451F0008491F0008C8
:100090004D1F0008511F0008551F0008591F000878
:1000A0005D1F0008611F0008651F0008691F000828
:1000B000B71A00086D1F0008331B0008711F0008E5
:1000C000751F0008791F00087D1F0008811F0008A8
:1000D000851F00086B1D0008891F00088D1F000880
:1000E000911F0008951F0008991F000809010200D0
:1000F00003D4DFF8700581547047DFF86C3502F0E7
:100100000F021A4402F8041C704710B5DFF85C05B2
:10011000DFF85C150278DFF85C050A2392FBF3F345
:100120000B710A23027892FBF3F38B7164230A8B21
:1001300000F06FF80A2000FB14220A72DFF838255D
:100140001378DFF8382593FBF0F0C8720A20137893
:10015000DFF82C2593FBF0F008730A201378DFF802
:10016000242593FBF0F0C8730A201378DFF81825D4
:1001700093FBF0F008740A201378DFF8102593FB46
:10018000F0F0C8740A20137893FBF0F0087510BDE6
:1001900010B5DFF8D8040278DFF8D4040A230A2166
:1001A00092FBF3F301FB132242710A23DFF8C4240C
:1001B00000F035F8C2710A23028B00F02AF801FB27
:1001C00014224272DFF8B02400F029F842730A23A7
:1001D000DFF8A82400F023F882730A23DFF8A024B4
:1001E00000F01DF842740A23DFF8982400F017F895
:1001F00082740A23DFF8902400F011F842750A2374
:10020000DFF88824127892FBF3F301FB1321817548
:1002100010BD92FBF3F20A2492FBF4F470471278BB
:1002200092FBF3F301FB13227047DFF844140A8BAF
:100230000A2392FBF3F30A2000FB13228A72704711
:1002400070B5DFF82C542878AC78012805D0022846
:1002500041D0042800F0B080D7E0012C08BF00F0A6
:1002600037FBFFF752FFFFF793FF29790FF2D840D2
:10027000014468790844A9790144E8790844FA30CE
:1002800000F0D0F800F029FA01210FF2C84000F088
:1002900036FB01210A2000F01FFBE87C00F0B9F8D2
:1002A00001210B2000F018FB687D00F0B2F801215D
:1002B0000C2000F011FB3A2000F00CFB01210D2076
:1002C00000F00AFB287D00F0A4F801210E2000F0C8
:1002D00003FBA87D6BE0288B40F27D26B04214BF63
:1002E00001200020E8700120E9786870012926D1FA
:1002F000FFF70BFFFFF74CFFFFF797FF54B100F03C
:10030000E7FA0021002000F0E7FA00210FF2504048
:1003100000F0F5FA00F0E1F9287A00F07AF801210E
:10032000012000F0D9FA687A00F073F80121022068
:1003300000F0D2FAA87A00F06CF80020A870E878F3
:10034000002864D1288BB04202D10121A97002E0BB
:10035000A87801280AD100F0BBFA0021032000F0A0
:10036000BBFA00210FF2084000F0C9FAFFF7CDFEFA
:10037000FFF70EFF00F0B1F900F04AF8012101206B
:1003800000F0AAFA00F049F80121022000F0A4FAD6
:100390003A2000F09FFA0121032000F09DFAA8798D
:1003A00000F037F80121042000F096FAE87900F017
:1003B00030F80020A87070BDFFF7A7FEFFF7E8FE39
:1003C00000210A2000F088FA00F022F800210B201A
:1003D00000F082FA00F021F800210C2000F07CFAF5
:1003E0003A2000F077FA00210D2000F075FAA87984
:1003F00000F00FF800210E2000F06EFAE879BDE859
:1004000070403030C0B200F065BA0120287070BD75
:1004100028793030C0B200F05DBA68793030C0B2AF
:1004200000F058BA38B5044600250021E8B200F0C3
:1004300053FA605D00F04EFA6D1C042DF5D331BD0A
:100440002DE9F0438FB00AA8CCA1914C914EDFF872
:100450004892DFF84882142200F062FA0DF1180089
:10046000CBA1102200F05CFA00F066FA00F039F936
:10047000102200F064F98A48016841F0200101600F
:1004800048F2F007026802F0200204924FF60C4591
:100490000499026842F004020260036803F0040356
:1004A00004930499026842F008020260036803F0B2
:1004B000080304930499026842F0100202600022CB
:1004C000006800F01000049039460498204600F0BF
:1004D0000BFB00222946304600F006FB00224FF4B9
:1004E000E651484600F000FB00220421404600F09F
:1004F000FBFA00970121019100220221039102924F
:100500006946204600F02AFA0120022101900022CB
:100510000391029200956946304600F01FFA4FF4AD
:10052000E65100F0C5F8484600F018FA4FF4C05004
:1005300000F0CCF8204600F011FA042100F0B8F8E1
:10054000404600F00BFA4FF44C7000F0BFF8304614
:1005500000F004FA534C544820604FF416510C201C
:10056000002260616160A260E2602261A261E261DA
:10057000204600F0D7FA00F0A4F800F0DFF84FF0C2
:100580008040206442F20F710020A0642065A065C5
:1005900041F61F46E164666404F1400000F048FC47
:1005A0004FF48055029502A904F1400000F026FDA9
:1005B0002021009100220192694604F1400000F0E0
:1005C000E9FD01211C20FFF791FD00F07AF800F011
:1005D000B5F83648C4F88000002104F1840040F2E8
:1005E000E732066041608260C160416104F18006CB
:1005F000304600F01DFC029502A9304600F0FEFCDA
:100600000021009101913046694600F0C3FD0221AE
:100610001E20FFF76BFD00F017F90021002000F00D
:100620005BF900210AA800F06AF900F056F80121F0
:1006300006A800F064F941F2883000F0E7FD00F010
:1006400047F904F1400000F000FC04F1400000F024
:100650000FFC304600F0F9FB304600F009FCFFF7D4
:10066000EFFDFCE700E400E018ED00E00D000020E5
:10067000280000200E0000200F00002004010020B0
:1006800010000020110000201200002013000020A4
:1006900000080140000C014000100140001401401E
:1006A00018100240440000200038014000080040BB
:1006B00000910122019200210291022203926946D7
:1006C00070471022002102A800F0B4BD0021009064
:1006D000019102220292694670470121002000F038
:1006E000FBB800B58FB02822002105A800F0A2FDBC
:1006F000142200F024F84FF4803100220691079272
:100700000D9101200590099002224FF4E0110C9206
:100710000E9105A800F098FD022101910F204FF4E1
:1007200080610090002203910292049202216846A7
:1007300000F014FF00F096FF0FB000BD082200216A
:10074000684600F077BD704754696D652069733A5B
:100750002000000054696D652064656C3A2000003B
:10076000456E7465722070617373776F72643A00BE
:100770005365742054696D653A2000004355442048
:10078000486F6D652053746174696F6E00000000DE
:100790007665722E20302E3320286465762900007D
:1007A000704738B50546C0F3C0000028424C14BF5E
:1007B00001220022102100F083F8C5F380000028F8
:1007C00014BF01220022202100F07AF8C5F3400076
:1007D000002814BF01220022402100F071F8E80730
:1007E0002046BDE838404CBF01220022802100F0A5
:1007F0007BB938B50446314D002203E038B50446D4
:100800002E4D01224FF40061284600F06DF92009B9
:10081000FFF7C7FF00F013F8FFF7C2FF002200F058
:100820000FF82046FFF7BDFF00F009F8FFF7B8FF0B
:100830002846BDE838400022042100F055B90122C5
:100840000421284600F050B910B51C4C00224FF48A
:10085000006100F035F80320FFF7A3FF00F033F844
:10086000FFF79EFF002200F02FF80320FFF799FF0B
:1008700000F029F8FFF794FF002200F025F803208C
:10088000FFF78FFF00F01FF8FFF78AFF002200F04C
:100890001BF82820FFF7ADFF2820FFF7AAFF0C2048
:1008A000FFF7A7FF0120FFF7A4FF0620FFF7A1FF36
:1008B000BDE8104002209CE700080140000C014008
:1008C000204600F011B901220421204600F00CB9A5
:1008D00001208EE792E7000003290FD8DFE801F03E
:1008E0000205070940F0800007E0403002E01430C4
:1008F00000E0543040F08000C0B27AE7704770B535
:1009000004460D46002606E0FFF778FF2946F0B2C0
:10091000FFF7E2FF761CF0B2205C0028F4D170BD36
:100920004AB1000011F8013B521E00F8013B1CBF08
:1009300011F8013BF8E7704780B50748016841F0BE
:1009400010010160032000F0FEFE002000F050FFC7
:1009500000F06EFF002002BD002002402DE9F847A4
:100960004FF0000E0024624A624BDFF88C814FF09A
:100970000F0982460CE0D7683840D06006E09560E9
:100980004D68AD02F7D5D0680743D7600EF1010E70
:100990000F6837FA0EF000F09F80012000FA0EF683
:1009A0003740B742F2D1486838B301281AD002283C
:1009B0001DD003282ED0112816D012281AD04F4D42
:1009C000A8421CBF4E4DA84217D04E4DA8421CBF96
:1009D0004D4DA84211D04D4DA8421CBF4C4DA842D0
:1009E0000BD018E0CC6816E0CC68241D13E0CC686E
:1009F000083410E0CC680C340DE0886808B9042491
:100A000009E0012819BF0824CAF814600824CAF8AC
:100A1000106000E00024B7F5807F03D250464FEA13
:100A20008E0C05E0AEF108050AF104004FEA850CD2
:100A3000056809FA0CF6B54304FA0CF6354305606F
:100A40004868C000A2D5D8F8000040F00100C8F8FE
:100A50000000D8F8005005F0010500954FEA8E051A
:100A600000984FEA9E0053F8206005F00C0C09FA3C
:100A70000CF526EA0505274EB24508BF00260ED024
:100A8000254EB24508BF012609D0244EB24508BF05
:100A9000022604D0224EB2450CBF0326042606FAD5
:100AA0000CF6354343F82050F8434D68ED031568C4
:100AB0004CBF3D43054015604D68AD0355684CBFC4
:100AC0003D43054055604D689668ED024CBF47EACE
:100AD000060500EA060552E7BDE8F1878068084090
:100AE00018BF0120C0B2704702B909040161704704
:100AF00000040140080001401810024000001110DD
:100B0000000012100000211000002210000031101F
:100B10000000321000080140000C014000100140AC
:100B20000014014038B5040001D1012032BD00F0AD
:100B300021F808B900F022F800F012F800F023F8CC
:100B4000FFE7416100F001F832BD2068C16841F45F
:100B50000051C1600020686020216970A970704751
:100B6000242068702068C16821F40051C1602046CB
:100B700000F01DB904F1380568787047002129702C
:100B8000204600F09FBE2068016921F49041016178
:100B90002068416921F02A017047416921F0400134
:100BA0004161606B704738B5044625682968EA687A
:100BB0006B6911F00F0007D188065DD593065BD5F0
:100BC0002046BDE83240A9E0D80702D412F4907F55
:100BD00052D0C80705D5D50503D5E06B40F001001C
:100BE000E063480705D5DD0703D5E06B40F0020060
:100BF000E063880705D5DD0703D5E06B40F004000E
:100C0000E063080705D5DB0703D5E06B40F008007B
:100C1000E063E06B00286CD0880604D5910644BFE1
:100C2000204600F07BF820684069E16B0A0701D498
:100C300040061BD5204600F05DF8206841694A0651
:100C40000FD5FFF7AAFF60B10FF2C5014163606BDA
:100C500000F084FE00284CD0606B416BBDE834404E
:100C600008472046BDE8324000F0D6BE204600F0DE
:100C7000D3FE0020E06331BD08062AD5130628D52F
:100C800094F83900212834D1A068B0F5805F206A3B
:100C90000BD10188C1F30801696020690028206A2E
:100CA0000CBF811C411C216203E0411C21620078C1
:100CB0006860E08C401EE08480B2D0B92068C168D2
:100CC00021F08001C1602068C16841F04001C1602D
:100CD00031BD48060DD551060BD5E86820F040001F
:100CE000E860202184F839102046BDE8324000F049
:100CF00094BE31BD0168CA6822F49072CA6001686E
:100D00004A69520852004A61202180F83A1070471F
:100D1000406A0021C185C18400F07EBE80B590F894
:100D20003A10222941D18168B1F5805F12D1016961
:100D30000368826A0029596805D1C1F3080111804E
:100D4000826A911C04E001F0FF011180826A511C4B
:100D500081620FE001690029816A04D14A1C826224
:100D600003685A6805E04A1C826203685A6802F008
:100D70007F020A70C18D491EC18589B299B9016887
:100D8000CA6822F02002CA600168CA6822F4807230
:100D9000CA6001684A69520852004A61202180F8FD
:100DA0003A10FFF7D0FC002002BD022002BD70B552
:100DB0000446642522681169E06821F4405101432A
:100DC00011611926D3681849A0680B4021690343B3
:100DD00060690B430343D3605169A06921F44071FA
:100DE000014312485161824202D100F064FC01E0EB
:100DF00000F059FC464360688000B6FBF0F06421C7
:100E0000B0FBF1F105FB11052D0132356420B5FB76
:100E1000F0F000F0F00202EB0112216800F00F0088
:100E20008018886070BD0000F3E9FFFF00380140C2
:100E300038B5040001D1012032BD00F037F818B9EF
:100E400000F030F800F011FD22E0022180F83D10A2
:100E500001688A6802F00702062A03D00A6842F095
:100E600001020A60FFE7012180F83D100020704771
:100E70000068C16841F00101C160816801F00701AB
:100E8000062903D0016841F001010160002070478C
:100E900002206870211D206800F00DF901206870A3
:100EA000002032BD002129702046704704F13C0526
:100EB0006878704710B50446206801698A0715D51F
:100EC000C1688A0712D56FF0020101610122227701
:100ED000806910F0030F204602D000F09FFD03E070
:100EE00000F09DFD00F087F8002020772068016960
:100EF0004A0715D5C1684A0712D56FF00401016190
:100F000002222277806910F4407F204602D000F050
:100F100085FD03E000F083FD00F06DF800202077F0
:100F2000206801690A0715D5C1680A0712D56FF054
:100F30000801016104222277C06910F0030F2046E6
:100F400002D000F06BFD03E000F069FD00F053F803
:100F50000020207720680169CA0615D5C168CA0635
:100F600012D56FF01001016108222277C06910F4D8
:100F7000407F204602D000F051FD03E000F04FFD1D
:100F800000F039F80020207720680169CA0708D5E9
:100F9000C168CA0705D56FF001010161204600F064
:100FA0003FFD206801690A0608D5C1680A0605D513
:100FB0006FF080010161204600F033FD2068016977
:100FC0004A0608D5C1684A0605D56FF0400101619F
:100FD000204600F027FD206801698A060AD5C1680D
:100FE0008A0607D56FF0200101612046BDE8104058
:100FF00000F019BD10BD204600F016BD38B500F058
:101000004EF801D1022032BD012020700222627010
:10101000DFF800012A6893680340936008680200C3
:1010200018BF10282DD0202818BF302829D04028DC
:1010300023D0502816D0602818D0702803D0B0F5DF
:10104000005F07D021E000F025F82868816841F0B2
:10105000770105E000F01EF82868816841F48041BE
:10106000816012E000F012F850210BE0CA68496874
:10107000286800F068F8602104E000F007F84021DB
:1010800000E00146286800F070F80EE0CA68496880
:10109000286849E0CB684A68896828686DE0054699
:1010A00005F13C0420780128704701206070002180
:1010B0002170002032BD70B5174E0368174C184DD3
:1010C000B04218BFB0F1804F03D0A84218BFA04271
:1010D00009D14A6823F070031343B0421CBFB0F13A
:1010E000804FA84201D0A04203D1CA6823F44073C4
:1010F00013434A6923F0800313430360B0428B68B3
:10110000C3620A68826202D10969064A116001233A
:10111000436170BD8800FFFF002C014000080040C3
:1011200000040040302C014010B5036A046A6408D2
:101130006400046223F00A03846924F0F00444EAA2
:101140000214846123E010B5036A23F010030362E4
:101150008369046A23F4704343EA023324F0A00451
:10116000836144EA0114046210BD826822F07002B7
:10117000114341F007018160704710B5846824F481
:101180007F442143114341EA0321816010BD19438B
:10119000016210BD70B500F13C031A78012A01D13B
:1011A000022070BD01221A7002245C700468656818
:1011B000A6684A68096825F070050D43656026F049
:1011C000800600681643866001215970002018705F
:1011D00070BD30B4002513E050F8042BD30744BF92
:1011E000A9F101039A18091F042942F8045BFAD2F5
:1011F00013468C0744BF15809B1CC90748BF1D7050
:1012000050F8041B0029E7D130BC704738B50446BC
:1012100000F00CFC14F1010F054602D004490878D7
:10122000041900F003FC401BA042FAD331BD00BFFB
:101230000000002010B5044610460A46014620462C
:1012400000F0FAFB204610BD2DE9F843040016D04B
:101250002078DFF88C64C10713D5706800F00C00AB
:10126000042807D0706800F00C00082841D170688D
:10127000C1033ED53068810303D56068002800F0C3
:1012800064812078DFF86874810719D5706810F0E0
:101290000C0F07D0706800F00C00082861D170684E
:1012A000C1035ED43068810703D52069012840F06E
:1012B0004C813168606921F0F80141EAC001316078
:1012C0002178080740F18180A069DFF82814002800
:1012D00000F0A68001220A6000F0A8FB0546706AB3
:1012E000810763D400F0A2FB401B0228F7D903203A
:1012F0002EE16068B0F5803F04D1306840F4803062
:10130000306014E008B930680AE0B0F5A02F30680A
:1013100006D140F480203060316841F4803105E02E
:1013200020F480303060316821F4802131606068C1
:1013300058B100F07BFB054630688103A1D400F072
:1013400075FB401B6528F7D3D1E700F06FFB05461E
:101350003068810395D500F069FB401B6528F7D301
:10136000C5E72069A8B10121396000F05FFB05469F
:101370003068810705D400F059FB401B0228F7D9DB
:10138000B5E73068616920F0F80040EAC1003060DC
:1013900096E7386000F04AFB0546316888078FD52C
:1013A00000F044FB401B0228F7D9A0E7DFF8340324
:1013B0000168C9084FF47A72B1FBF2F2009200BFE3
:1013C0000098411E00280091F9D1207841076ED580
:1013D000F0690025C10009D4F06940F08050F06147
:1013E0000125F06900F0805000900098DFF8088334
:1013F000D8F80000C10520D4D8F8000040F480706F
:10140000C8F8000000F012FB8146D8F80000C105C2
:1014100013D400F00BFBA0EB09006528F5D366E7B9
:10142000086000F003FB0546706A8107CDD500F027
:10143000FDFA401B0228F7D959E7E068012808D0D7
:1014400008B9306A09E00528306A06D140F0040086
:101450003062306A40F0010005E040084000306230
:10146000306A20F00400306241F28938E06860B1EF
:1014700000F0DCFA8146306A810713D400F0D6FA16
:10148000A0EB09004045F6D331E700F0CFFA8146E2
:10149000306A810706D500F0C9FAA0EB0900404583
:1014A000F6D324E71DB1F06920F08050F061E069C7
:1014B00000284CD0716801F00C01082938D00228AE
:1014C0002AD100F047F805463068810105D500F0C3
:1014D000ADFA401B0228F7D909E7206AB0F5803F32
:1014E00005D17168A06821F4003101437160726810
:1014F000206A616A22F4741202430A437260012076
:1015000000F029F804463068810120D400F08EFAFA
:10151000001B0228F7D9EAE600F01CF80446306800
:10152000810114D500F082FA001B0228F7D9DEE60B
:1015300001280AD07068226A00F48031914202BF0B
:1015400000F47010616A884201D0012000E00020A0
:10155000BDE8F2830020386600F068BA2DE9F0415A
:10156000040088464ED0654E00F077F802D200F0B5
:101570006FF847D120685A4D810712D5400703D52F
:10158000696841F4E06169602078010703D5686803
:1015900040F4605068606968A06821F0F001014380
:1015A00069602178C80725D56068012802D12968BB
:1015B0008A0303E00228296802D18A0102D421E0CB
:1015C0008A071FD56968890840EA8100686000F0D1
:1015D0002DFA07466868616800F00C00B0EB810FD7
:1015E00008D000F023FAC01B41F289318842F1D3C0
:1015F00003202BE0306800F00700804504D200F0A3
:1016000027F801D0012021E02078410705D56A683C
:10161000E06822F4E06202436A602178080706D598
:101620006968206921F4605141EAC001696000F0F5
:101630001DF86A6832492B4BC2F30312895CC8401B
:1016400018602A48006800F0D3F80020BDE8F08157
:101650003168C90848EAC1013160306800F007000C
:1016600040457047284901200860704725491E48B9
:101670000A6802F00C03082B00D0704710B500BFB9
:1016800025A4C2F38343D203E35C08D50968584319
:1016900025A3C1F340415A5CB0FBF2F010BD1846DF
:1016A0001A49484310BD0F48164A00681368184984
:1016B000C3F3022206E00B48124A0068136814497B
:1016C000C3F3C222895CC840704710B5114C206832
:1016D000010603D500F029F88020A07010BD00009D
:1016E000001002402400002000127A0008000020B0
:1016F000000042428004424200700040002002404C
:10170000001E0008041002404C00424200093D0047
:10171000F41E000808100240020304050607080929
:101720000A0B0C0D0E0F1010010270470901020088
:1017300002D4294881547047284B02F00F021A4402
:1017400002F8041C7047264B19684FF6FF0200028E
:10175000114000F4E06008432249084318607047D4
:1017600070B51F4B1C68C4F302230124C3F10705A5
:10177000052D2EBF0F2504FA05F56D1E1E1D072E23
:1017800034BF0023DB1E2940994004FA03F3BDE86F
:1017900070405B1E1A401143C8E7010007D40122C4
:1017A00000F01F01104B8A40400943F82020704789
:1017B00010B5401EB0F1807F01D3012010BD0B4C4D
:1017C00060600F214FF0FF30FFF7B0FF0021A160F4
:1017D00007202060002010BD00E400E018ED00E0CC
:1017E0000CED00E00000FA0500E100E010E000E090
:1017F00038B50D4D0D4B2A7804464FF47A711868B0
:10180000B1FBF2F2B0FBF2F0FFF7D2FF50B9102CAF
:1018100008D2002221464FF0FF30FFF7A1FFAC6055
:10182000002032BD012032BD000000202400002035
:10183000444881B0016841F001010160026802F092
:10184000010200920099426842F080524260406872
:1018500000F08050009000983B48016821F0E06162
:1018600041F00071016001B0704780B500683749F0
:10187000B0F1804F0FD1086840F0010008600022ED
:10188000096801F001010091002100981C20FFF778
:1018900067FF1C2011E02E4A904212D1086840F0E8
:1018A000040008600022096801F004010091002191
:1018B00000981E20FFF754FF1E20BDE80240FFF7EE
:1018C0006CBF01BD18B585B00446102200216846E2
:1018D000FFF7B0FC21681F48814230D119481E4CE7
:1018E000016841F480410160026802F48042049280
:1018F0000499026842F0040202604FF4007100682B
:1019000000F0040004900222049800910192032147
:10191000039120466946FFF721F84FF480600021CB
:1019200000900191029120466946FFF717F80022C6
:1019300000212520FFF714FF2520FFF72EFF06B01A
:1019400010BD000018100240040001401C100240AD
:1019500000080040003801400008014038B590F808
:1019600021200024022A00F1340103D00420486021
:1019700001243BE00268136823F00E031360026841
:10198000DFF8783015686D086D00156002689A42BE
:1019900008BF012222D0DFF868309A4208BF102227
:1019A0001CD0DFF860309A4208BF4FF4807215D027
:1019B000DFF854309A4208BF4FF480520ED0DFF85F
:1019C0004C309A4208BF4FF4803207D0DFF84030E5
:1019D0009A420CBF4FF480124FF08072DFF834301F
:1019E0001A6000F005F8096801B18847204632BD49
:1019F000012280F8212080F8204070470800024032
:101A00001C000240300002404400024058000240E6
:101A10006C000240040002407047704770477047F6
:101A20007047704770477047704700000148406832
:101A3000704700BF0000002062F30F2262F31F42D4
:101A4000401810F0030308D0C91A1FD3DB0748BFA2
:101A500000F8012D28BF20F8022D130030B41446E1
:101A60001546103928BF20E93C00FAD8490728BF9D
:101A700020E90C0048BF40F8042D890028BF20F859
:101A8000022D48BF00F8012D30BC7047C91818BF9F
:101A900000F8012DCB0728BF00F8012D704700008A
:101AA000FFF713BEFEE7FEE7FEE7FEE7704770476D
:101AB000704700F077B970B5AD48AE4CFFF7FAF952
:101AC0006178E278AC48914204D32379994238BFD7
:101AD000012200D300224FF48051FFF705F860691E
:101AE000A27863783C2813DB267960790021616154
:101AF0003C25F61A521C05FB0606D0B23C21301AD2
:101B000090FBF1F105FB1105E0602061A171E57129
:101B1000D0B23C28A4BF00225B1CD8B21828606950
:101B2000A270A8BF0023401C012163706061217076
:101B300070BD2DE9F84F9148DFF83CA2904F914CD1
:101B40008C4DDFF84482DFF84492914EFFF7B2F9F2
:101B500000F007F9012804BF3878002812D10121CC
:101B6000317001224FF400418A48FEF7BDFF00F0BA
:101B7000DFF800F0F0F800F0E8F800F0D4F800F03A
:101B8000CDF833E000F0EDF8012804BF38780128E3
:101B900007D198F80010012903D06878411E6970B8
:101BA00024E000F0DEF8012801BF3878012898F819
:101BB0000010012903D12088411E218016E000F089
:101BC000D0F8012804BF3878022803D1E878411EF4
:101BD000E9700BE000F0C5F8012801BF3878022851
:101BE000287A012802D12879411E2971202100F08C
:101BF000B9F8012804BF38780028DFF89CB114D167
:101C0000022100F09BF801224FF480614846FEF764
:101C10006BFF00F0A0F800F098F800F084F800F0F6
:101C20007DF801208BF8000037E0202100F09AF8C1
:101C3000012804BF3878012807D198F8001001293D
:101C400003D06878401C687027E0202100F08AF8F3
:101C5000012801BF3878012898F80010012903D124
:101C60002088401C208018E0202100F07BF801280B
:101C700004BF3878022803D1E878401CE8700CE0F3
:101C8000202100F06FF8012801BF38780228287A57
:101C9000012802D12879401C28714FF4807100F08E
:101CA00061F8012804BF3878002814D1052100F01C
:101CB00045F800F03DF800F04EF800F046F801223B
:101CC00004213648FEF710FF5046BDE8F84F0022C9
:101CD0000821FEF709BF4FF4807100F043F8012896
:101CE00004BF3878012807D10121317000203870F5
:101CF0008BF8001020800FE04FF4807100F032F874
:101D0000012804BF3878022806D10021397001204B
:101D100030708BF800002972BDE8F18F0022082195
:101D20005046FEF7E1BE002204211C48FEF7DCBE4F
:101D300000224FF480614846FEF7D6BE3170002283
:101D40004FF400411348FEF7CFBE00224FF48051FC
:101D50004846FEF7C9BE00224FF400614846FEF730
:101D6000C3BE10215046FEF7B9BE0D48FEF71BBF9B
:101D7000840000200C000020000C0140C400002062
:101D800029000020400000202B000020001001400E
:101D900028000020000801402A0000200014014013
:101DA0004400002002494A68087882184A60704757
:101DB0000000002010B50E4A0E49106840F00100E6
:101DC000106053680C480B40536014680440146062
:101DD000116821F4802111604FF41F01506820F434
:101DE000FE00506091604FF00060044A106010BD2A
:101DF000001002400000FFF8FFFFF6FE08ED00E0D3
:101E000000000000000000000102030406070809AA
:101E100030B5016884684218416802EB5103C90774
:101E200003D54C4401E0491C05D19A420AD012F96D
:101E3000011B12F8015B002904F8015BF3D4491E71
:101E4000F7D5F2E70C3030BD10B5074979441831A9
:101E5000064C7C44163404E00A68081D1144884787
:101E60000146A142F8D110BD080000002400000086
:101E700063F3FFFFC40000004400002000000000E6
:101E800091FFFFFF18010000280000000000002063
:101E900000F00DF8002801D0FFF7D6FFAFF3008067
:101EA0000020AFF30080FEF7CBFA00F002F801202B
:101EB000704700F001B800000746384600F002F80D
:101EC000FBE7000080B5AFF30080024A1100182044
:101ED000ABBEFBE7260002000148804701480047EF
:101EE000B51D0008E91E0008AFF30080AFF30080C5
:101EF000FFF7CEFF0000000001020304FFF7FEBF62
:101F0000FFF7FEBFFFF7FEBFFFF7FEBFFFF7FEBF05
:101F1000FFF7FEBFFFF7FEBFFFF7FEBFFFF7FEBFF5
:101F2000FFF7FEBFFFF7FEBFFFF7FEBFFFF7FEBFE5
:101F3000FFF7FEBFFFF7FEBFFFF7FEBFFFF7FEBFD5
:101F4000FFF7FEBFFFF7FEBFFFF7FEBFFFF7FEBFC5
:101F5000FFF7FEBFFFF7FEBFFFF7FEBFFFF7FEBFB5
:101F6000FFF7FEBFFFF7FEBFFFF7FEBFFFF7FEBFA5
:101F7000FFF7FEBFFFF7FEBFFFF7FEBFFFF7FEBF95
:101F8000FFF7FEBFFFF7FEBFFFF7FEBFFFF7FEBF85
:101F9000FFF7FEBFFFF7FEBFFFF7FEBF0001F9002E
:101FA0000010FA00010B16EC000324F40001E70016
:0400000508001EE9E8
:00000001FF
