:020000040800F2
:200000004804002001220008791D00087D1D00087F1D0008811D0008831D00080000000017
:20002000000000000000000000000000851D0008871D000800000000891D00088B1D00080C
:2000400025220008292200082D2200083122000835220008392200083D22000841220008B8
:2000600045220008492200084D2200085122000855220008592200088F1D0008951D00083C
:200080005D2200086122000865220008692200086D220008712200087522000879220008B8
:2000A0007D2200088122000885220008892200089B1D00088D220008151E0008912200081F
:2000C00095220008992200089D220008A1220008A52200084D200008A9220008AD2200081E
:2000E000B1220008B5220008B9220008DFF87016DFF8700609780A2291FBF2F101710A23FE
:20010000DFF86416097891FBF2F181716422018B91FBF2F10A2291FBF2F203FB12110172FB
:20012000DFF84816097891FBF3F1C172DFF84016097891FBF3F10173DFF83816097891FBA2
:20014000F3F1C173DFF83016097891FBF3F10174DFF82816097891FBF3F1C174DFF82016BC
:20016000097891FBF3F101757047DFF8F4050278DFF8F0050A230A2192FBF3F301FB13224F
:2001800042710A23DFF8E025127892FBF3F301FB1322C2710A23028B92FBF3F292FBF3F3A3
:2001A00001FB132242720A23DFF8C025127892FBF3F301FB132242730A23DFF8B425127827
:2001C00092FBF3F301FB132282730A23DFF8A425127892FBF3F301FB132242740A23DFF8D1
:2001E0009825127892FBF3F301FB132282740A23DFF88825127892FBF3F301FB1322427588
:200200000A23DFF87C25127892FBF3F301FB132181757047DFF84C05018B0A2291FBF2F20F
:200220000A2303FB12118172704710B5DFF834452078012805D0022853D0042800F0B28080
:20024000CFE0A078012809D100F0BBFB002100F0D8F900210FF2785000F0DDFBFFF746FF5F
:20026000FFF783FF00F0C8F900F0B1F900F0C0F9607900F0ADF900F0B7F900F0A5F900F085
:20028000AFF9A07900F0A4F900F0A6F9E07900F09FF900F0B5F901210FF2405000F0BBFBA9
:2002A00001210A2000F09CFBE07C00F091F901210B2000F095FB607D00F08AF901210C202A
:2002C00000F08EFB00F080F901210D2000F088FB207D00F07DF901210E2000F081FBA07D9E
:2002E0005BE00120E070607000F06BFBFFF7FEFEFFF73BFFFFF78EFF002100F082F90021DA
:200300000FF2E44000F087FB00F07AF9207A00F05FF90121012000F063FB607A00F058F955
:200320000121022000F05CFBA07A00F051F9208B40F27D21884256D10020E070A0780128C1
:2003400008BF00F03EFBFFF7D1FEFFF70EFF0021032000F045FB00210FF29C4000F05BFB2D
:2003600000F04EF900F033F90121012000F038FB607900F02DF90121022000F031FB00F085
:2003800023F90121032000F02BFBA07900F020F90121042000F024FBE07900F019F90020F4
:2003A000A07010BDFFF7A2FEFFF7DFFE00F024F900F00DF900F01CF9607900F009F900F034
:2003C00013F900F001F900F00BF9A07900F000F900F002F9E079BDE810403030C0B200F036
:2003E000F9BA0120207010BD70B590B00BA80FF21441E44C142200F023FB07A80FF21841E1
:20040000102200F01DFB00F047FB00F0FDF800F02AF9DD48016841F00101016000220068CC
:2004200000F001000290002102980E2000F060FB0E2000F07AFB002200210F2000F058FBBD
:200440000F2000F072FBD148206041F61F454FF4165060604FF480560020A060E060206179
:200460000C2060610020A061E061204600F088FB00F0A6F80FF2C030D0E900234FF08040FA
:2004800020640020A06442F20F70E064CDE9002300202065A065656404F1400000F0F4FC5C
:2004A000039603A904F1400000F0D5FD2020009069460020019004F1400000F095FE00F028
:2004C0007FF80FF27C300021D0E90023B048C4F8800004F18400416040F2E7318160CDE9CC
:2004E000002305600021C160416104F18005284600F0CAFC039603A9284600F0ACFD002086
:20050000009001906946284600F06EFE00F0F7F9002100F076F800210BA800F07CFA00F0B8
:200520006FF8012107A800F076FA41F2883000F07BFE00F046FA002100F063F800210FF211
:200540009020884E00F067FA00F056F8FFF7CEFDFFF70BFE307900F03BF800F049F87079E0
:2005600000F036F800F040F800F02EF800F038F8B07900F02DF800F02FF8F07900F028F831
:2005800000F03EF801210FF2A02000F044FA00F018FA04F1400000F084FC04F1400000F058
:2005A00093FC284600F07DFC284600F08DFC794C20780128FCD1FFF738FE00202070F7E7E1
:2005C00003A8102100F044BE3A2000F003BA20793030C0B200F0FEB900210E2000F000BA3B
:2005E00000210D2000F0FCB900210C2000F0F8B900210B2000F0F4B900210A2000F0F0B94D
:200600000121002000F0ECB900B58FB005A8282100F01EFE6846142100F01AFE012005906C
:20062000002107914FF48030069001210D9009914FF4E01002210E900C9105A800F00CFEE7
:200640000F200090022102200190002002904FF48060039000200490684600F07AFF01F0E1
:2006600000F80FB000BD2DE9F04385B001A8FFF7A8FF4948494C0168494EDFF82891DFF8B5
:20068000288141F02001016048F2F007016801F02001009100220099016841F00401016006
:2006A0004FF60C45016801F0040100910099016841F008010160016801F00801009100998A
:2006C000016841F0100101603946006800F0100000900098204601F0F4F8002229463046B5
:2006E00001F0EFF800224FF4E651484601F0E9F800220421404601F0E4F801970120029041
:2007000001A900F05EF8204601F01AF80120029001950020039001A902200490304601F0BD
:200720000FF84FF4E65000F048F8484601F008F84FF4C05000F03AF8204601F001F80420A1
:2007400000F03BF8404600F0FBFF4FF44C7000F02DF8304600F0F4FF05B0BDE8F0830000CC
:200760000D000020280000200E0000200F000020900500201000002011000020120000205F
:2007800013000020480400201410024000380140000800400C0000201810024000080140B4
:2007A000000C01400010014000140140019001A900200290022003907047019001A9012091
:2007C0000290002003900220049070477047704754696D652069733A0000000054696D65A5
:2007E0002064656C3A200000456E7465722070617373776F72643A005365742054696D65A4
:200800003A20000043554420486F6D652053746174696F6E000000007665722E20302E33CB
:2008200020286465762900006974277320776F726B696E672100000000000000000000004F
:20084000000000000000000070474EF66021484300E0401E0128FCDA704738B50446C4F3AF
:20086000C0000028514D14BF01220022102100F043F8C4F38000002814BF012200222021C6
:2008800000F03AF8C4F34000002814BF01220022402100F031F8E0072846BDE838404CBF08
:2008A00001220022802101F00CB838B50446404D002203E038B504463D4D01224FF400614C
:2008C00000F01AF82009FFF7C8FF00F013F8FFF7BBFF002200F00FF82046FFF7BEFF00F063
:2008E00009F8FFF7B1FF2846BDE838400022042100F0E7BF01220421284600F0E2BF10B5DD
:20090000282000F091FC2A4C00224FF40061204600F0D7FF0320FFF7A0FF00F04DF8FFF7C7
:2009200093FF002200F049F800F044F80320FFF794FF00F041F8FFF787FF002200F03DF80E
:2009400000F038F80320FFF788FF00F035F8FFF77BFF002200F031F800F02CF82820FFF7BD
:20096000A4FF00F027F82820FFF79FFF00F022F80C20FFF79AFF00F01DF80120FFF795FF74
:200980000220FFF762FF0620FFF78FFF00F012F80220FFF78AFF0220FFF757FF0420FFF711
:2009A00084FFBDE8104002204FE7000000080140000C0140012048E701220421204600F0E3
:2009C00080BF80B50120FFF770FFBDE80240022000F02ABC80B5FFF76DFFBDE8014033E7A7
:2009E000032900D9704780B5DFE801F00205070940F0800007E0403002E0143000E05430A6
:200A000040F08000C0B2FFF750FFBDE80240012000F00ABC01BD70B504460D4600260AE021
:200A20002946F0B2FFF7DCFFA05DFFF7D3FF0A2000F0FAFB761CA05D0028F1D170BD00005A
:200A4000103A07D330B4B1E83810103AA0E83810F9D230BC530724BFB1E80810A0E808104E
:200A600044BF51F8043B40F8043BD20724BF31F8022B20F8022B44BF0B7803707047083A2B
:200A800007D3B1E80810083A40F8043B40F804CBF7D25307E4E7000080B50748016841F0FF
:200AA00010010160032000F016F8002000F028FF00F046FF002002BD0020024009010200EA
:200AC00002D4294881547047284802F00F02104400F8041C704726490A684FF6FF03000283
:200AE0001A4000F4E0601043224A10430860704738B51F4B1B68C3F30223C3F10704052C92
:200B000028BF04241D1D072D34BF0023DB1E012505FA04F4641E2140994005FA03F35B1E02
:200B20001A401143BDE83440C8E7002807D4012100F01F029140104A400942F82010704774
:200B400010B5401EB0F1807F01D3012010BD0B4C60600F214FF0FF30FFF7B0FF0020A06096
:200B600007202060002010BD00E400E018ED00E00CED00E00000FA0500E100E010E000E0CF
:200B800038B5050001D1012032BD05F13804607818B92070284600F01DFF00F017F800F0AD
:200BA0000DF821F02A01FFE74161286800F019F8606020206070A070002032BD28680169F2
:200BC00021F490410161286841697047242060702868C16821F40051C160284600F013B95E
:200BE0002068C16841F40051C16000207047416921F040014161606B704738B504462368E4
:200C00001868D9685A6910F00F0507D182065DD58A065BD52046BDE83240ABE0D50702D430
:200C200011F4907F52D0C30705D5CB0503D5E36B43F00103E363430705D5D30703D5E36B43
:200C400043F00203E363830705D5D30703D5E36B43F00403E363030705D5D20703D5E26B50
:200C600042F00802E263E26B002A6CD0800604D5880644BF204600F07DF820684069E16B08
:200C8000090701D440061BD5204600F05DF82068416949060FD5FFF7AAFF60B10FF2C901AE
:200CA0004163606B00F03CFF00284CD0606B416BBDE8344008472046BDE8324001F032B81F
:200CC000204601F02FF80020E06331BD02062AD50A0628D594F83900212834D1A068B0F571
:200CE000805F206A0BD10088C0F30800586020690028206A0CBF801C401C206203E0411CF4
:200D0000216200785860E08C401EE08480B2D0B92068C16821F08001C1602068C16841F0F1
:200D20004001C16031BD40060DD548060BD5D86820F04000D860202084F839002046BDE845
:200D4000324000F0F0BF31BD0168CA6822F49072CA6001684A69520852004A61202180F88B
:200D60003A10704700000000406A0021C185C18400F0D8BF80B590F83A10222941D1816848
:200D8000B1F5805F12D10269816A002A0268526805D1C2F308020A80816A891C04E002F0C2
:200DA000FF020A80816A491C81620FE001690029816A04D14A1C82620268526805E04A1C7A
:200DC00082620268526802F07F020A70C18D491EC18589B299B90168CA6822F02002CA609D
:200DE0000168CA6822F48072CA6001684A69520852004A61202180F83A10FFF7E7FC0020B7
:200E000002BD022002BD70B50446642520680169E26821F44051114301611926C168184AD8
:200E20001140A26811432269114362691143C1604169A26921F4407111434161114988424F
:200E400002D100F041FC01E000F036FC616870438900B0FBF1F06421B0FBF1F105FB1100DB
:200E600000013230B0FBF5F000F0F00202EB011100F00F0040182168886070BD00000000A9
:200E8000F3E9FFFF0038014038B5040001D1012032BD00F033F818B92870204600F06DFDE8
:200EA00022E0022180F83D1001688A6802F00702062A03D00A6842F001020A60FFE70121D6
:200EC00080F83D10002070470068C16841F00101C160816801F00701062903D0016841F013
:200EE000010101600020704702206870211D206800F00BF901206870002032BD04F13C05C6
:200F00006878704710B5044620680169890715D5C168890712D56FF00201016101212177A1
:200F2000806910F0030F204602D000F0FDFE03E000F0FBFE00F087F80020207720680169AF
:200F4000490715D5C168490712D56FF00401016102212177806910F4407F204602D000F0A2
:200F6000E3FE03E000F0E1FE00F06DF80020207720680169090715D5C168090712D56FF067
:200F80000801016104212177C06910F0030F204602D000F0C9FE03E000F0C7FE00F053F82C
:200FA0000020207720680169C90615D5C168C90612D56FF01001016108212177C06910F430
:200FC000407F204602D000F0AFFE03E000F0ADFE00F039F80020207720680169C90708D588
:200FE000C168C90705D56FF001010161204600F09DFE20680169090608D5C168090605D57A
:201000006FF080010161204600F091FE20680169490608D5C168490605D56FF04001016137
:20102000204600F085FE2068016989060AD5C168890607D56FF0200101612046BDE81040A6
:2010400000F077BE10BD204600F074BE0120207002206070704738B500F04CF801D10220A7
:2010600032BDFFF7F3FFDFF80031286882681A4082600868020018BF10282DD0202818BF3E
:20108000302829D0402823D0502816D0602818D0702803D0B0F5005F07D021E000F025F882
:2010A0002868816841F0770105E000F01EF82868816841F48041816012E000F012F8502176
:2010C0000BE0CA684968286800F069F8602104E000F007F8402100E00146286800F071F89C
:2010E0000EE0CA684968286848E0CB684A68896828686EE0054605F13C04207801287047BA
:20110000012060700020207032BD70B5174A0368174C184D904218BFB0F1804F03D0A842B0
:2011200018BFA04209D14E6823F07003334390421CBFB0F1804FA84201D0A04203D1CC68A8
:2011400023F4407323434C6923F080032343036090428B68C3620B68836202D10969064A74
:2011600011600121416170BD8800FFFF002C01400008004000040040302C014010B5036ABF
:20118000046A640864000462846924F0F00444EA0212826123F00A021143016210BD10B529
:2011A000036A23F0100303628369046A23F4704343EA0232826124F0A00242EA0111016278
:2011C00010BD826822F07002114341F007018160704710B5846824F47F442143114341EA40
:2011E0000321816010BD000070B500F13C021378012B01D1022070BD012313700223537062
:2012000003685C689D684E68096824F070042143596025F08005006835438560012050708E
:201220000020107070BD000038B5044600F084FD14F1010F054602D004480078041900F036
:201240007BFD401BA042FAD331BD00BF00000020002200F077BD00002DE9F843040016D0BE
:201260002078DFF89054C00713D5686800F00C00042807D0686800F00C0008283FD16868C1
:20128000C0033CD52868800303D56068002800F057812078DFF86864800719D5686810F057
:2012A0000C0F07D0686800F00C0008285AD16868C00357D42868800703D52069012840F086
:2012C0003F812868616920F0F80040EAC10028602078000772D5A169DFF82804002900F06D
:2012E00099800121016000F027FD0746686A800755D400F021FDC01B0328F7D311E16068D7
:20130000B0F5803F09D008B928680AE0B0F5A02F286806D140F480202860286840F48030AA
:2013200005E020F480302860286820F480202860606858B100F000FD074628688003A8D416
:2013400000F0FAFCC01B6528F7D3EAE000F0F4FC0746286880039CD500F0EEFCC01B6528B8
:20136000F7D3DEE0206968B10120306000F0E4FC074628688007A4D400F0DEFCC01B032816
:20138000F7D3CEE0306000F0D7FC0746286880079ED500F0D1FCC01B0328F7D3C1E0DFF8A6
:2013A00058030068C0084FF47A71B0FBF1F0009000BF0098411E00280091F9D12078400740
:2013C0006FD5E869C0004FF000080AD4E86940F08050E8614FF00108E86900F08050009010
:2013E0000098DFF82493D9F80000C0051FD4D9F8000040F48070C9F8000000F09DFC0746B2
:20140000D9F80000C00512D400F096FCC01B6528F6D386E0016000F08FFC0746686A8007B5
:20142000CCD500F089FCC01B0328F7D379E0E068012808D008B9286A09E00528286A06D152
:2014400040F004002862286A40F0010005E0400840002862286A20F00400286241F28939EF
:20146000E06858B100F068FC0746286A800711D400F062FCC01B4845F7D352E000F05CFC82
:201480000746286A800705D500F056FCC01B4845F7D346E0B8F1000F03D0E86920F08050B6
:2014A000E861E06900284DD0696801F00C01082939D002282AD100F048F807462868800199
:2014C00005D500F039FCC01B0328F7D329E0206AB0F5803F05D16868A16820F40030084308
:2014E00068606868216A20F474100843616A08436860012000F02AF807462868800121D482
:2015000000F01AFCC01B0328F7D30AE000F01DF807462868800115D500F00EFCC01B0328BE
:20152000F7D303200FE001280AD06868226A00F48031914202BF00F47010616A884201D05D
:20154000012000E00020BDE8F2830020306600F0F3BB2DE9F0410400884650D06B4E306872
:2015600000F00700404502D200F06CF847D12068604F810712D5400703D5786840F4E06096
:2015800078602078000703D5786840F4605078607868A16820F0F000084378602078C007F5
:2015A00025D56068012802D13968890303E00228396802D1890102D421E089071FD57968F9
:2015C000890840EA8100786000F0B6FB05467868616800F00C00B0EB810F08D000F0ACFBCC
:2015E000401B41F289318842F1D3032028E0306800F00700804504D200F024F801D00120C2
:201600001EE02078400705D57868E16820F4E060084378602078000706D57868216920F47B
:20162000605040EAC100786000F01FF87A683849C2F30312895CC8402F4900F00DF8002089
:20164000BDE8F0813068C00848EAC0003060306800F007004045704708602E48006800F091
:201660004FB92E4901200860704710B586B001A80FF2B8011022FFF7E3F90FF2C000264919
:201680000088ADF800000A681C4802F00C03082B10D101ABC2F38344D2031B5D08D509686F
:2016A000C1F3404158431DF80110B0FBF1F001E01B48584306B010BD0F48174A00681268AC
:2016C0001849C2F3022206E00B48134A006812681449C2F3C222895CC840704710B5124C9B
:2016E0002068000603D500F02AF88020A07010BD00000000001002402400002000127A00D3
:2017000000004242800442420070004000200240EC20000808000020041002404C004242C9
:2017200000093D001C2200080810024002030405060708090A0B0C0D0E0F10100102704772
:201740002DE9F84700220023604CDFF88481DFF884914FF00F0A01E0E560521C0E6836FAE9
:2017600002F500F0A680012707FA02F505EA060EAE45F2D14F683FB3012F1AD0022F1DD0A2
:20178000032F2CD0112F16D0122F1AD0524EB7421CBF524EB74217D0514EB7421CBF514EC4
:2017A000B74211D0504EB7421CBF504EB7420BD016E0CB6814E0CB681B1D11E0CB68083384
:2017C0000EE0CB680C330BE08B680BB9042307E0012B19BF082345610823056100E0002390
:2017E000BEF1FF0F02D88446950004E0A2F1080500F1040CAD00DCF800600AFA05F7BE438C
:2018000003FA05F53543CCF800504D68ED00A4D5D9F8005045F00105C9F800504FEA920CE6
:20182000D9F8006006F001050095009D58F82C60950005F00C050AFA05F7BE432C4FB8425C
:2018400008BF00270ED02B4FB84208BF012709D0294FB84208BF022704D0284FB8420CBF0E
:201860000327042707FA05F5354348F82C506FEA0E064D68ED0325684CBF4EEA0505354083
:2018800025604D68AD0365684CBF4EEA0505354065604D68ED02A5684CBF4EEA0505354097
:2018A000A5604D68AD02E5684CBF4EEA0505354052E7BDE8F1878068084018BF0120C0B2C0
:2018C000704702B90904016170470000000401400800014018100240000011100000121035
:2018E0000000211000002210000031100000321000080140000C01400010014000140140C6
:2019000038B50D4D297804464FF47A70B0FBF1F00A490968B1FBF0F0FFF712F950B9102C46
:2019200008D2002221464FF0FF30FFF7E1F8AC60002032BD012032BD000000202400002078
:20194000564881B0016841F001010160016801F0010100910099416841F080514160406841
:2019600000F08050009000984D48016821F0E06141F00071016001B0704780B50068494995
:20198000B0F1804F0FD1086840F0010008600022086800F001000090002100981C20FFF7F0
:2019A000A7F81C2011E0404A904212D1086840F0040008600022086800F0040000900021D9
:2019C00000981E20FFF794F81E20BDE80240FFF7ACB801BD70B586B0044601A81021FFF7FD
:2019E00037FC2068314988424CD12C48304D0168304E41F480410160016801F480410091EC
:201A00000099016841F00401016001A9006800F00400009000984FF4007001900220029007
:201A2000032004902846FFF78BFE4FF48060019001A90020029003902846FFF781FE1E4D11
:201A400005F11400306000207060B06000F01CF808B1FEF7BCFE102066637462174E70607C
:201A60000020B060356000F00FF808B1FEF7AFFE26637462002200212520FFF739F82520FC
:201A8000FFF753F806B070BD8020F060002030617061B061F061304600F012B818100240B4
:201AA000040001401C10024000080040003801400008014008050020440002404C05002045
:201AC00010B508B9012010BD0268DFF834329B18142400F13801B3FBF4F39B008B60DFF8E4
:201AE00024324B60022380F82130136844686FF30D13234384682343C46823430469234331
:201B00004469234384692343C4692343136000220A60012180F8211080F82020002010BD5D
:201B200010B590F821200024022A00F1340103D00420486001243FE00268136823F00E03B5
:201B40001360026813685B085B0013600268DFF8B8319A4208BF012222D0DFF8B0319A4286
:201B600008BF10221CD0DFF8A8319A4208BF4FF4807215D0DFF89C319A4208BF4FF48052B7
:201B80000ED0DFF894319A4208BF4FF4803207D0DFF888319A420CBF4FF480124FF080721F
:201BA000DFF87C311A60012280F8212080F8204009680A0018BF8847204610BD2DE9F84FC2
:201BC00000F1280104274A69544BD2F800E00468534A25688E69DFF84081DFF83891DFF828
:201BE00030A1DFF828B1DFF820C1B7401EEA070F2DD06F072BD52568AD0603D4256825F06B
:201C0000040525600468644508BF042318D05C4508BF402314D0544508BF4FF480630FD037
:201C20004C4508BF4FF480430AD0444508BF4FF4802305D09C420CBF4FF480034FF08063D0
:201C4000136049680A0058D0BDE8F44F08470227B7401EEA070F33D0AF0731D52568AD06BA
:201C600006D4256825F00A052560012480F821400468644508BF022318D05C4508BF2023C2
:201C800014D0544508BF4FF400730FD04C4508BF4FF400530AD0444508BF4FF4003305D008
:201CA0009C420CBF4FF400134FF000731360002280F8202009680A001FD0BDE8F44F084785
:201CC0000822B2401EEA020F17D02A0715D5226822F00E02226001228B699A404B695A6040
:201CE00001220A6180F82120002280F8202089680A001CBFBDE8F44F0847BDE8F18F000091
:201D0000F8FFFDBF00000240080002401C0002403000024044000240580002406C000240E6
:201D200004000240704770477047704770477047704770477047000001484068704700BF87
:201D40000000002000B500BF130096469446103928BFA0E80C50FAD85FEA417C28BF0CC087
:201D600048BF40F8042BC90728BF20F8022B48BF00F8012B00BD0000FFF7B0BCFEE7FEE7E5
:201D8000FEE7FEE770477047704700F081B9B148FFF714BFB048FFF711BF38B5AF48B04CCA
:201DA000FFF7B0F86178E378AE48994204D32279914238BF012200D300224FF48051FFF722
:201DC00080FD6269A07861783C2A13DB00226261401C237965793C225B1A02FB0353C0B223
:201DE0003C251B1A93FBF5F502FB1532E3602361A571E2713C28A4BF0020491CA070C9B28A
:201E000060691829A8BF0021401C606161700120207031BD2DE9F84F9348DFF848A2934FC8
:201E2000934C8F4DDFF84C82DFF84C92934EFFF769F800F007F9012804BF3878002812D1BE
:201E40000120307001224FF400418D48FFF739FD00F0DFF800F0F0F800F0E8F800F0D4F8EE
:201E600000F0CDF833E000F0EDF8012804BF3878012807D198F80000012803D06878401E5E
:201E8000687024E000F0DEF8012801BF3878012898F80000012803D12088401E208016E0B5
:201EA00000F0D0F8012804BF3878022803D1E878401EE8700BE000F0C5F8012801BF387889
:201EC0000228287A012802D12879401E2871202100F0B9F8012804BF38780028DFF8A4B1D0
:201EE00014D1022000F09BF801224FF480614846FFF7E7FC00F0A0F800F098F800F084F836
:201F000000F07DF801208BF8000037E0202100F09AF8012804BF3878012807D198F80000B1
:201F2000012803D06878401C687027E0202100F08AF8012801BF3878012898F8000001285C
:201F400003D12088401C208018E0202100F07BF8012804BF3878022803D1E878401CE870BF
:201F60000CE0202100F06FF8012801BF38780228287A012802D12879401C28714FF48071B2
:201F800000F061F8012804BF3878002814D1052000F045F800F03DF800F04EF800F046F874
:201FA000012204213848FFF78CFC5046BDE8F84F00220821FFF785BC4FF4807100F043F878
:201FC000012804BF3878012803D100F010F820800BE04FF4807100F036F8012804BF3878F7
:201FE000022802D100F003F82872BDE8F18F00203870012030708BF8000000207047002235
:020000040800F2
:2020000008215046FFF75DBC002204211E48FFF758BC00224FF480614846FFF752BC3070C3
:2020200000224FF400411648FFF74BBC00224FF480514846FFF745BC00224FF40061484690
:20204000FFF73FBC10215046FFF735BC0F48FEF7D4BD00004C0500200805002088040020BA
:202060000C000020000C0140C804002029000020400000202B00002000100140280000206E
:20208000000801402A0000200014014048040020024841680278511841607047000000209E
:2020A0000E480F4A016841F0010101604168114041600C4A016811400160016821F4802149
:2020C0000160416821F4FE0141604FF41F0181604FF00060044908607047000000100240A0
:2020E0000000FFF8FFFFF6FE08ED00E00000000000000000010203040607080919E050F8B9
:20210000041BCB0744BFA9F101035918121F0023042A41F8043BF9D25FEA827C0B4604D586
:202120004FF0000CA1F800C09B1CD10744BF0021197050F8042B002AE1D1704730B5016867
:2021400042688468014401EB5203D20748BF4C44994201D10C3030BD11F9012B11F8015B82
:20216000002A04F8015B02D5521CF9D1F0E7521EF4D5EDE710B5074979441831064C7C44BD
:20218000163404E00A68081D114488470146A142F8D110BD080000002400000061FFFFFF0C
:2021A0004C010000480400200000000091FFFFFF0C010000280000000000002000F00BF890
:2021C000002801D0FFF7D6FF0020C046C046FEF70BF900F002F80120704700F001B80000AB
:2021E0000746384600F002F8FBE7000080B5C046C046024A11001820ABBEFBE726000200FF
:202200000148804701480047A120000811220008C046C046C046C046FFF7D0FF000000003D
:2022200001020304FFF7FEBFFFF7FEBFFFF7FEBFFFF7FEBFFFF7FEBFFFF7FEBFFFF7FEBFAF
:20224000FFF7FEBFFFF7FEBFFFF7FEBFFFF7FEBFFFF7FEBFFFF7FEBFFFF7FEBFFFF7FEBFE6
:20226000FFF7FEBFFFF7FEBFFFF7FEBFFFF7FEBFFFF7FEBFFFF7FEBFFFF7FEBFFFF7FEBFC6
:20228000FFF7FEBFFFF7FEBFFFF7FEBFFFF7FEBFFFF7FEBFFFF7FEBFFFF7FEBFFFF7FEBFA6
:2022A000FFF7FEBFFFF7FEBFFFF7FEBFFFF7FEBFFFF7FEBFFFF7FEBFFFF7FEBF0001F9003F
:1022C0000010FA00010B16EC000324F40001E700F3
:00000001FF
